{
  "contractName": "EpochRegistryAPI",
  "abi": [
    {
      "constant": true,
      "inputs": [
        {
          "name": "",
          "type": "uint256"
        }
      ],
      "name": "epochsIndex",
      "outputs": [
        {
          "name": "",
          "type": "uint256"
        }
      ],
      "payable": false,
      "stateMutability": "view",
      "type": "function"
    },
    {
      "constant": false,
      "inputs": [],
      "name": "getContractDirectory",
      "outputs": [
        {
          "name": "",
          "type": "address"
        }
      ],
      "payable": false,
      "stateMutability": "nonpayable",
      "type": "function"
    },
    {
      "constant": true,
      "inputs": [],
      "name": "currentEpoch",
      "outputs": [
        {
          "name": "",
          "type": "uint256"
        }
      ],
      "payable": false,
      "stateMutability": "view",
      "type": "function"
    },
    {
      "constant": true,
      "inputs": [],
      "name": "owner",
      "outputs": [
        {
          "name": "",
          "type": "address"
        }
      ],
      "payable": false,
      "stateMutability": "view",
      "type": "function"
    },
    {
      "constant": true,
      "inputs": [
        {
          "name": "",
          "type": "uint256"
        }
      ],
      "name": "epochs",
      "outputs": [
        {
          "name": "nonce",
          "type": "uint256"
        },
        {
          "name": "blockStart",
          "type": "uint256"
        },
        {
          "name": "blockEnd",
          "type": "uint256"
        }
      ],
      "payable": false,
      "stateMutability": "view",
      "type": "function"
    },
    {
      "constant": false,
      "inputs": [
        {
          "name": "_contractDirectory",
          "type": "address"
        }
      ],
      "name": "setContractDirectory",
      "outputs": [],
      "payable": false,
      "stateMutability": "nonpayable",
      "type": "function"
    },
    {
      "constant": true,
      "inputs": [],
      "name": "contractDirectory",
      "outputs": [
        {
          "name": "",
          "type": "address"
        }
      ],
      "payable": false,
      "stateMutability": "view",
      "type": "function"
    },
    {
      "constant": true,
      "inputs": [],
      "name": "blocksPerEpoch",
      "outputs": [
        {
          "name": "",
          "type": "uint256"
        }
      ],
      "payable": false,
      "stateMutability": "view",
      "type": "function"
    },
    {
      "constant": false,
      "inputs": [
        {
          "name": "newOwner",
          "type": "address"
        }
      ],
      "name": "transferOwnership",
      "outputs": [],
      "payable": false,
      "stateMutability": "nonpayable",
      "type": "function"
    },
    {
      "anonymous": false,
      "inputs": [
        {
          "indexed": false,
          "name": "_nonce",
          "type": "uint256"
        },
        {
          "indexed": false,
          "name": "_blockStart",
          "type": "uint256"
        },
        {
          "indexed": false,
          "name": "_blockEnd",
          "type": "uint256"
        }
      ],
      "name": "EpochStarted",
      "type": "event"
    },
    {
      "anonymous": false,
      "inputs": [
        {
          "indexed": false,
          "name": "_relayNonce",
          "type": "bytes32"
        },
        {
          "indexed": false,
          "name": "_token",
          "type": "bytes8"
        },
        {
          "indexed": false,
          "name": "_txHash",
          "type": "bytes32"
        },
        {
          "indexed": false,
          "name": "_sender",
          "type": "address"
        },
        {
          "indexed": false,
          "name": "_nodeNonce",
          "type": "bytes32"
        },
        {
          "indexed": false,
          "name": "_epoch",
          "type": "uint256"
        }
      ],
      "name": "RelayAddedToEpoch",
      "type": "event"
    },
    {
      "anonymous": false,
      "inputs": [
        {
          "indexed": false,
          "name": "_epoch",
          "type": "uint256"
        },
        {
          "indexed": false,
          "name": "_relayNonce",
          "type": "bytes32"
        },
        {
          "indexed": false,
          "name": "_nodeNonce",
          "type": "bytes32"
        },
        {
          "indexed": false,
          "name": "_verificationResult",
          "type": "bool"
        }
      ],
      "name": "RelayVerified",
      "type": "event"
    },
    {
      "anonymous": false,
      "inputs": [
        {
          "indexed": true,
          "name": "previousOwner",
          "type": "address"
        },
        {
          "indexed": true,
          "name": "newOwner",
          "type": "address"
        }
      ],
      "name": "OwnershipTransferred",
      "type": "event"
    },
    {
      "constant": false,
      "inputs": [
        {
          "name": "_token",
          "type": "bytes8"
        },
        {
          "name": "_txHash",
          "type": "bytes32"
        },
        {
          "name": "_sender",
          "type": "address"
        },
        {
          "name": "_nodeNonce",
          "type": "bytes32"
        }
      ],
      "name": "addRelayToCurrentEpoch",
      "outputs": [
        {
          "name": "",
          "type": "bytes32"
        }
      ],
      "payable": false,
      "stateMutability": "nonpayable",
      "type": "function"
    },
    {
      "constant": false,
      "inputs": [
        {
          "name": "_epoch",
          "type": "uint256"
        },
        {
          "name": "_relayNonce",
          "type": "bytes32"
        },
        {
          "name": "_nodeNonce",
          "type": "bytes32"
        },
        {
          "name": "_verificationResult",
          "type": "bool"
        }
      ],
      "name": "verifyRelayInEpoch",
      "outputs": [],
      "payable": false,
      "stateMutability": "nonpayable",
      "type": "function"
    },
    {
      "constant": false,
      "inputs": [
        {
          "name": "_blocksPerEpoch",
          "type": "uint256"
        }
      ],
      "name": "setBlocksPerEpoch",
      "outputs": [],
      "payable": false,
      "stateMutability": "nonpayable",
      "type": "function"
    },
    {
      "constant": true,
      "inputs": [
        {
          "name": "_relayNonce",
          "type": "bytes32"
        },
        {
          "name": "_epochNonce",
          "type": "uint256"
        }
      ],
      "name": "isRelayAtEpoch",
      "outputs": [
        {
          "name": "",
          "type": "bool"
        }
      ],
      "payable": false,
      "stateMutability": "view",
      "type": "function"
    }
  ],
  "bytecode": "0x606060405233600460006101000a81548173ffffffffffffffffffffffffffffffffffffffff021916908373ffffffffffffffffffffffffffffffffffffffff160217905550611273806100546000396000f3006060604052600436106100c5576000357c0100000000000000000000000000000000000000000000000000000000900463ffffffff168063034438b0146100ca5780630792d5ab146100ed5780630a652e41146101355780632e2d78d21461016c57806330b3c52a146101b457806376671808146102095780638da5cb5b14610232578063c6b61e4c14610287578063ca531390146102cc578063e3d00c6814610305578063efe1c73f14610398578063f0682054146103ed578063f2fde38b14610416575b600080fd5b34156100d557600080fd5b6100eb600480803590602001909190505061044f565b005b34156100f857600080fd5b6101336004808035906020019091908035600019169060200190919080356000191690602001909190803515159060200190919050506104b5565b005b341561014057600080fd5b61015660048080359060200190919050506107a1565b6040518082815260200191505060405180910390f35b341561017757600080fd5b61019a6004808035600019169060200190919080359060200190919050506107c5565b604051808215151515815260200191505060405180910390f35b34156101bf57600080fd5b6101c7610811565b604051808273ffffffffffffffffffffffffffffffffffffffff1673ffffffffffffffffffffffffffffffffffffffff16815260200191505060405180910390f35b341561021457600080fd5b61021c61083b565b6040518082815260200191505060405180910390f35b341561023d57600080fd5b610245610841565b604051808273ffffffffffffffffffffffffffffffffffffffff1673ffffffffffffffffffffffffffffffffffffffff16815260200191505060405180910390f35b341561029257600080fd5b6102a86004808035906020019091905050610867565b60405180848152602001838152602001828152602001935050505060405180910390f35b34156102d757600080fd5b610303600480803573ffffffffffffffffffffffffffffffffffffffff16906020019091905050610891565b005b341561031057600080fd5b61037a600480803577ffffffffffffffffffffffffffffffffffffffffffffffff19169060200190919080356000191690602001909190803573ffffffffffffffffffffffffffffffffffffffff1690602001909190803560001916906020019091905050610931565b60405180826000191660001916815260200191505060405180910390f35b34156103a357600080fd5b6103ab610e70565b604051808273ffffffffffffffffffffffffffffffffffffffff1673ffffffffffffffffffffffffffffffffffffffff16815260200191505060405180910390f35b34156103f857600080fd5b610400610e96565b6040518082815260200191505060405180910390f35b341561042157600080fd5b61044d600480803573ffffffffffffffffffffffffffffffffffffffff16906020019091905050610e9c565b005b600460009054906101000a900473ffffffffffffffffffffffffffffffffffffffff1673ffffffffffffffffffffffffffffffffffffffff163373ffffffffffffffffffffffffffffffffffffffff161415156104ab57600080fd5b8060038190555050565b60008060008060008881526020019081526020016000209250600060010260001916836003016000886000191660001916815260200190815260200160002060010154600019161415151561050957600080fd5b600560009054906101000a900473ffffffffffffffffffffffffffffffffffffffff1673ffffffffffffffffffffffffffffffffffffffff1663e16c7d986000604051602001526040518163ffffffff167c010000000000000000000000000000000000000000000000000000000002815260040180807f4e6f6465526567697374727900000000000000000000000000000000000000008152506020019050602060405180830381600087803b15156105c257600080fd5b6102c65a03f115156105d357600080fd5b5050506040518051905091503373ffffffffffffffffffffffffffffffffffffffff168273ffffffffffffffffffffffffffffffffffffffff16631c09629a876000604051602001526040518263ffffffff167c0100000000000000000000000000000000000000000000000000000000028152600401808260001916600019168152602001915050602060405180830381600087803b151561067557600080fd5b6102c65a03f1151561068657600080fd5b5050506040518051905073ffffffffffffffffffffffffffffffffffffffff161415156106b257600080fd5b82600401600086600019166000191681526020019081526020016000208054905090506000811115156106e457600080fd5b8383600301600088600019166000191681526020019081526020016000206004016000876000191660001916815260200190815260200160002060006101000a81548160ff0219169083151502179055507f8778b8b1c0361d1d8c3521ced0f1306f086874b0a79395d902beef79a372cf238787878760405180858152602001846000191660001916815260200183600019166000191681526020018215151515815260200194505050505060405180910390a150505050505050565b6001818154811015156107b057fe5b90600052602060002090016000915090505481565b6000806000808481526020019081526020016000209050600060010281600301600086600019166000191681526020019081526020016000206001015460001916141591505092915050565b6000600560009054906101000a900473ffffffffffffffffffffffffffffffffffffffff16905090565b60025481565b600460009054906101000a900473ffffffffffffffffffffffffffffffffffffffff1681565b60006020528060005260406000206000915090508060000154908060010154908060020154905083565b600460009054906101000a900473ffffffffffffffffffffffffffffffffffffffff1673ffffffffffffffffffffffffffffffffffffffff163373ffffffffffffffffffffffffffffffffffffffff161415156108ed57600080fd5b80600560006101000a81548173ffffffffffffffffffffffffffffffffffffffff021916908373ffffffffffffffffffffffffffffffffffffffff16021790555050565b600080600061093e611145565b60008073ffffffffffffffffffffffffffffffffffffffff168773ffffffffffffffffffffffffffffffffffffffff161415151561097b57600080fd5b600560009054906101000a900473ffffffffffffffffffffffffffffffffffffffff1673ffffffffffffffffffffffffffffffffffffffff1663e16c7d986000604051602001526040518163ffffffff167c010000000000000000000000000000000000000000000000000000000002815260040180807f4e6f6465526567697374727900000000000000000000000000000000000000008152506020019050602060405180830381600087803b1515610a3457600080fd5b6102c65a03f11515610a4557600080fd5b5050506040518051905093503373ffffffffffffffffffffffffffffffffffffffff168473ffffffffffffffffffffffffffffffffffffffff16631c09629a886000604051602001526040518263ffffffff167c0100000000000000000000000000000000000000000000000000000000028152600401808260001916600019168152602001915050602060405180830381600087803b1515610ae757600080fd5b6102c65a03f11515610af857600080fd5b5050506040518051905073ffffffffffffffffffffffffffffffffffffffff16141515610b2457600080fd5b6000806002548152602001908152602001600020925060006001805490501480610b515750826002015443115b15610b7557610b5e610ff4565b600080600254815260200190815260200160002092505b6080604051908101604052808a77ffffffffffffffffffffffffffffffffffffffffffffffff19168152602001896000191681526020018873ffffffffffffffffffffffffffffffffffffffff16815260200187600019168152509150888888604051808477ffffffffffffffffffffffffffffffffffffffffffffffff191677ffffffffffffffffffffffffffffffffffffffffffffffff1916815260080183600019166000191681526020018273ffffffffffffffffffffffffffffffffffffffff1673ffffffffffffffffffffffffffffffffffffffff166c0100000000000000000000000002815260140193505050506040518091039020905081836003016000836000191660001916815260200190815260200160002060008201518160000160006101000a81548167ffffffffffffffff02191690837801000000000000000000000000000000000000000000000000900402179055506020820151816001019060001916905560408201518160020160006101000a81548173ffffffffffffffffffffffffffffffffffffffff021916908373ffffffffffffffffffffffffffffffffffffffff1602179055506060820151816003019060001916905590505082600401600087600019166000191681526020019081526020016000208054806001018281610d6b91906111a5565b9160005260206000209001600083909190915090600019169055507f619505ce8277c5fbb3295c6711745048bcb18c9bc8acea5b99fb83e207ad6904818a8a8a8a6002546040518087600019166000191681526020018677ffffffffffffffffffffffffffffffffffffffffffffffff191677ffffffffffffffffffffffffffffffffffffffffffffffff1916815260200185600019166000191681526020018473ffffffffffffffffffffffffffffffffffffffff1673ffffffffffffffffffffffffffffffffffffffff1681526020018360001916600019168152602001828152602001965050505050505060405180910390a180945050505050949350505050565b600560009054906101000a900473ffffffffffffffffffffffffffffffffffffffff1681565b60035481565b600460009054906101000a900473ffffffffffffffffffffffffffffffffffffffff1673ffffffffffffffffffffffffffffffffffffffff163373ffffffffffffffffffffffffffffffffffffffff16141515610ef857600080fd5b600073ffffffffffffffffffffffffffffffffffffffff168173ffffffffffffffffffffffffffffffffffffffff1614151515610f3457600080fd5b8073ffffffffffffffffffffffffffffffffffffffff16600460009054906101000a900473ffffffffffffffffffffffffffffffffffffffff1673ffffffffffffffffffffffffffffffffffffffff167f8be0079c531659141344cd1fd0a4f28419497f9722a3daafe3b4186f6b6457e060405160405180910390a380600460006101000a81548173ffffffffffffffffffffffffffffffffffffffff021916908373ffffffffffffffffffffffffffffffffffffffff16021790555050565b6060604051908101604052806001805490508152602001438152602001600354430181525060008060018054905081526020019081526020016000206000820151816000015560208201518160010155604082015181600201559050506001805480600101828161106591906111d1565b916000526020600020900160008060006001805490508152602001908152602001600020600001549091909150555060008060018080549050038152602001908152602001600020600001546002819055507f29db3deb62ef2036e5eb93aad68d2362aec0711af592cb365566603bd88651d460008060025481526020019081526020016000206000015460008060025481526020019081526020016000206001015460008060025481526020019081526020016000206002015460405180848152602001838152602001828152602001935050505060405180910390a1565b608060405190810160405280600077ffffffffffffffffffffffffffffffffffffffffffffffff1916815260200160008019168152602001600073ffffffffffffffffffffffffffffffffffffffff168152602001600080191681525090565b8154818355818115116111cc578183600052602060002091820191016111cb91906111fd565b5b505050565b8154818355818115116111f8578183600052602060002091820191016111f79190611222565b5b505050565b61121f91905b8082111561121b576000816000905550600101611203565b5090565b90565b61124491905b80821115611240576000816000905550600101611228565b5090565b905600a165627a7a7230582008bc7a5ec6d1b5976203f7950285ea1da932fc6fe12694d204bd1beb986755a20029",
  "source": "pragma solidity ^0.4.18;\n\nimport \"./BaseAPI.sol\";\nimport \"../interfaces/EpochRegistry.sol\";\nimport \"../interfaces/ContractDirectory.sol\";\nimport \"../interfaces/NodeRegistry.sol\";\n\ncontract EpochRegistryAPI is EpochRegistry, BaseAPI {\n    // Events\n    event EpochStarted(uint256 _nonce, uint256 _blockStart, uint256 _blockEnd);\n    event RelayAddedToEpoch(bytes32 _relayNonce, bytes8 _token, bytes32 _txHash, address _sender, bytes32 _nodeNonce, uint256 _epoch);\n    event RelayVerified(uint256 _epoch, bytes32 _relayNonce, bytes32 _nodeNonce, bool _verificationResult);\n\n    // Functions\n    /*\n     * @dev Adds a Relay to the current epoch indicated in the state of this contract.\n     * @param bytes8 _token - The token id of the transaction (BTC, ETH, LTC, etc).\n     * @param bytes32 _txHash - The tx hash of this relay\n     * @param address _sender - Sender of the relay\n     * @param bytes32 _nodeNonce - The nonce pertaining to the Node doing this relay\n     */\n    function addRelayToCurrentEpoch(bytes8 _token, bytes32 _txHash, address _sender, bytes32 _nodeNonce) public returns(bytes32) {\n        require(_sender != address(0x0));\n        NodeRegistry nodeRegistry = NodeRegistry(ContractDirectory(contractDirectory).getContract(\"NodeRegistry\"));\n        require(nodeRegistry.getNodeOwner(_nodeNonce) == msg.sender);\n        Models.Epoch storage currentEpochInstance = epochs[currentEpoch];\n        if(epochsIndex.length == 0 || block.number > currentEpochInstance.blockEnd) {\n            insertEpoch();\n            currentEpochInstance = epochs[currentEpoch];\n        }\n        Models.Relay memory relay = Models.Relay(_token, _txHash, _sender, _nodeNonce);\n        bytes32 relayNonce = keccak256(_token, _txHash, _sender);\n        currentEpochInstance.relays[relayNonce] = relay;\n        currentEpochInstance.relaysPerNode[_nodeNonce].push(relayNonce);\n        RelayAddedToEpoch(relayNonce, _token, _txHash, _sender, _nodeNonce, currentEpoch);\n        return relayNonce;\n    }\n    /*\n     * @dev Adds a verification of whether or not a given Relay was succesfully executed or not.\n     *      The condition to be able to verify a Relay, is being a Node that executed another Relay\n     *      in the same Epoch.\n     * @param uint256 _epoch - The epoch where the relay happened.\n     * @param bytes32 _relayNonce - The nonce of the relay being verified\n     * @param bytes32 _nodeNonce - The nonce of the node submitting the verification\n     * @param bool _verificationResult - The result of this verification\n     */\n    function verifyRelayInEpoch(uint256 _epoch, bytes32 _relayNonce, bytes32 _nodeNonce, bool _verificationResult) public {\n        Models.Epoch storage epoch = epochs[_epoch];\n        require(epoch.relays[_relayNonce].txHash != bytes32(0));\n        NodeRegistry nodeRegistry = NodeRegistry(ContractDirectory(contractDirectory).getContract(\"NodeRegistry\"));\n        require(nodeRegistry.getNodeOwner(_nodeNonce) == msg.sender);\n        uint256 verifierRelayCount = epoch.relaysPerNode[_nodeNonce].length;\n        require(verifierRelayCount > 0);\n        epoch.relays[_relayNonce].verifications[_nodeNonce] = _verificationResult;\n        RelayVerified(_epoch, _relayNonce, _nodeNonce, _verificationResult);\n    }\n\n    /*\n     * @dev Registers the next epoch\n     */\n    function insertEpoch() internal {\n        epochs[epochsIndex.length] = Models.Epoch(epochsIndex.length, block.number, block.number + blocksPerEpoch);\n        epochsIndex.push(epochs[epochsIndex.length].nonce);\n        currentEpoch = epochs[epochsIndex.length - 1].nonce;\n        EpochStarted(epochs[currentEpoch].nonce, epochs[currentEpoch].blockStart, epochs[currentEpoch].blockEnd);\n    }\n\n    /*\n     * @dev Sets the blocksPerEpoch state variable\n     */\n    function setBlocksPerEpoch(uint256 _blocksPerEpoch) public onlyOwner {\n        blocksPerEpoch = _blocksPerEpoch;\n    }\n\n    /*\n     * @dev Checks wheter or not a relay exists with the given nonce at the given Epoch\n     * @param bytes32 _relayNonce\n     * @param uint256 _epochNonce\n     */\n     function isRelayAtEpoch(bytes32 _relayNonce, uint256 _epochNonce) public view returns(bool) {\n        Models.Epoch storage epochInstance = epochs[_epochNonce];\n        return epochInstance.relays[_relayNonce].txHash != 0;\n     }\n}\n",
  "sourcePath": "/Users/luyzdeleon/current_projects/pocket-core/contracts/api/EpochRegistryAPI.sol",
  "compiler": {
    "name": "solc",
    "version": "0.4.19+commit.c4cbbb05.Emscripten.clang"
  },
  "schemaVersion": "2.0.0",
  "updatedAt": "2018-04-01T18:58:40.613Z"
}